{
  "contractName": "MiMCTree",
  "abi": [
    {
      "inputs": [],
      "payable": false,
      "stateMutability": "nonpayable",
      "type": "constructor"
    },
    {
      "anonymous": false,
      "inputs": [
        {
          "indexed": false,
          "name": "utxo",
          "type": "uint256"
        }
      ],
      "name": "AddUtxo",
      "type": "event"
    },
    {
      "anonymous": false,
      "inputs": [
        {
          "indexed": false,
          "name": "nullifier",
          "type": "uint256"
        }
      ],
      "name": "AddNullifier",
      "type": "event"
    },
    {
      "anonymous": false,
      "inputs": [
        {
          "indexed": false,
          "name": "data",
          "type": "bytes"
        }
      ],
      "name": "AddEcryptedUtxoMessage",
      "type": "event"
    },
    {
      "constant": true,
      "inputs": [],
      "name": "merkleRoot",
      "outputs": [
        {
          "name": "",
          "type": "uint256"
        }
      ],
      "payable": false,
      "stateMutability": "view",
      "type": "function"
    },
    {
      "constant": false,
      "inputs": [
        {
          "name": "input",
          "type": "uint256[]"
        },
        {
          "name": "proof",
          "type": "uint256[]"
        },
        {
          "name": "encdata1",
          "type": "bytes"
        }
      ],
      "name": "deposit",
      "outputs": [
        {
          "name": "",
          "type": "bool"
        }
      ],
      "payable": true,
      "stateMutability": "payable",
      "type": "function"
    },
    {
      "constant": false,
      "inputs": [
        {
          "name": "input",
          "type": "uint256[]"
        },
        {
          "name": "proof",
          "type": "uint256[]"
        },
        {
          "name": "encdata1",
          "type": "bytes"
        },
        {
          "name": "encdata2",
          "type": "bytes"
        }
      ],
      "name": "withdrawal",
      "outputs": [
        {
          "name": "",
          "type": "bool"
        }
      ],
      "payable": false,
      "stateMutability": "nonpayable",
      "type": "function"
    },
    {
      "constant": false,
      "inputs": [
        {
          "name": "input",
          "type": "uint256[]"
        },
        {
          "name": "proof",
          "type": "uint256[]"
        },
        {
          "name": "encdata1",
          "type": "bytes"
        },
        {
          "name": "encdata2",
          "type": "bytes"
        }
      ],
      "name": "transfer",
      "outputs": [
        {
          "name": "",
          "type": "bool"
        }
      ],
      "payable": false,
      "stateMutability": "nonpayable",
      "type": "function"
    }
  ],
  "bytecode": "0x6104006040527f2594d6bd1c6a6e2b6eea9127790ab8b882d84f8a989177acd794ce50c68ac52260809081527f2a1a3d100dfdd38dfe14dd46be088a5910c8b241ac60fc5cc2aff5d43e2419b460a0527f1013fbd57b3e665c5d6b9a1991022b92f2562431394e032b4fdc1559d362298660c0527f0673a8b3d7a6f1536af1c331faaf8c24cd67d314b1d3df66ea40ee274c082c0360e0527f1a6b98c11c3881ece3c2f8ca679a7b7834c14862e9eef5316eb67e79195af305610100527f01c229ea0739768659f8dc15f24dd0b0b865c542889840b1c0d53462280c6d1a610120527f1142f739843c2162fcd0ab805bf4b223f9d3ef13c0890c585c1513f550831e9d610140527f06afe24eefdb918f57e363fbcd69441118a31b6e03e05a112348b69060d928d1610160527f2b7c001a83bf3123f7ccc68c414ac619a47bdb17a5f042c2ad8930d372822107610180527f26082214c8e2a0e7e403bd8dccdf1aec6c355634ede8c3fb091996d4d463cc5d6101a0527f1bc6c04518d65b3a0e703ea342356c418a42350b9e70123386be51a2be1403da6101c0527f209c637fd576867019a70ac3eb4e1a781fe73d696413fb7d4df68b1de38878896101e0527f0aeaf59bb0e17af9a6295b923746df448a95172b68d37719bde02b02c91f181c610200527f05d1b37e9c18c6b72d5a6bbfa032dcc132f6b5a7def57963dfd97a7b6851a179610220527efd8df63d6b4f14df0d0dc7d87c8cd45ca36382dbd9551e70e00736eea4cf28610240527f0b9ddd9ecaf5c596393e30a88f116d0e048ba6584427576aa01dcf542e026dca610260527f0950ee70b84d362cee1316f030ce221f95142fecf294457f5dc2277918c1e1b5610280527f21517e80714afb1d361cf954822ed8f6a56777a781db7211c645bbcc2dad90b06102a0527f0c38eb3acc661941a2707557a130404a1fe3d30df0ccea8be1776cae0aee65e26102c0527f15588145f13d89d7f5f2827db944662e79568eb234418027866d7af0039cf4426102e0527e4b3dc0ceea26c2a5fc6728ec99c0053dd0fa079fb7be8cd74a5e206fc3abf6610300527f28825635e6c52cf468a28ea039c0059f0d27fe367285fd1f8b86052eb36e78fb610320527f159a1f87a00f993bbfd7eb1c33146179729a32c581e7bcd6a2368e4f23db4539610340527f2b2f4d5fa47dd7b1e1167cc5ceb9066aecdae809a3a11521ba42c14c760e8918610360527f15482428492f96677136643b0e81836bbfa3ea9c34036197dc71d6035948685c610380527f1baeee4c928f7df34ab1a81cc38b23f56b6f2f61a6642e47c9d1e2d87c78c6dc6103a0527f11ac5e94831f30ff7d54b9a8b14fc7944d990cf04c1609dd3773748e208cae786103c0527f29a0ded3f87afc9cf1d3ac49adb643bf32bf0084361aead3dd2d357e14453ba26103e0526200041d90600090601c6200064f565b5060006001553480156200043057600080fd5b50600060025560015b601f811015620004b7576200047e60026000198301601f81106200045957fe5b015460026000198401601f81106200046d57fe5b0154640100000000620004be810204565b600282601f81106200048c57fe5b0155600281601f81106200049c57fe5b0154602182601f8110620004ac57fe5b015560010162000439565b50620006bf565b60007f30644e72e131a029b85045b68181585d2833e84879b9709143e1f593f0000001818173__MiMC__________________________________63d15ca1098760006040518363ffffffff167c0100000000000000000000000000000000000000000000000000000000028152600401808381526020018281526020019250505060206040518083038186803b1580156200055857600080fd5b505af41580156200056d573d6000803e3d6000fd5b505050506040513d60208110156200058457600080fd5b505186089050818015156200059557fe5b73__MiMC__________________________________63d15ca10986846040518363ffffffff167c0100000000000000000000000000000000000000000000000000000000028152600401808381526020018281526020019250505060206040518083038186803b1580156200060957600080fd5b505af41580156200061e573d6000803e3d6000fd5b505050506040513d60208110156200063557600080fd5b5051838015156200064257fe5b8684080895945050505050565b8280548282559060005260206000209081019282156200068d579160200282015b828111156200068d57825182559160200191906001019062000670565b506200069b9291506200069f565b5090565b620006bc91905b808211156200069b5760008155600101620006a6565b90565b611da380620006cf6000396000f3fe6080604052600436106100425760e060020a600035046305dfd68481146100475780632eb4a7ab1461029d5780634cd8acf4146102c457806392c59bf614610506575b600080fd5b34801561005357600080fd5b506102896004803603608081101561006a57600080fd5b81019060208101813564010000000081111561008557600080fd5b82018360208201111561009757600080fd5b803590602001918460208302840111640100000000831117156100b957600080fd5b919080806020026020016040519081016040528093929190818152602001838360200280828437600092019190915250929594936020810193503591505064010000000081111561010957600080fd5b82018360208201111561011b57600080fd5b8035906020019184602083028401116401000000008311171561013d57600080fd5b919080806020026020016040519081016040528093929190818152602001838360200280828437600092019190915250929594936020810193503591505064010000000081111561018d57600080fd5b82018360208201111561019f57600080fd5b803590602001918460018302840111640100000000831117156101c157600080fd5b91908080601f016020809104026020016040519081016040528093929190818152602001838380828437600092019190915250929594936020810193503591505064010000000081111561021457600080fd5b82018360208201111561022657600080fd5b8035906020019184600183028401116401000000008311171561024857600080fd5b91908080601f0160208091040260200160405190810160405280939291908181526020018383808284376000920191909152509295506106b4945050505050565b604080519115158252519081900360200190f35b3480156102a957600080fd5b506102b2610b1b565b60408051918252519081900360200190f35b3480156102d057600080fd5b50610289600480360360808110156102e757600080fd5b81019060208101813564010000000081111561030257600080fd5b82018360208201111561031457600080fd5b8035906020019184602083028401116401000000008311171561033657600080fd5b919080806020026020016040519081016040528093929190818152602001838360200280828437600092019190915250929594936020810193503591505064010000000081111561038657600080fd5b82018360208201111561039857600080fd5b803590602001918460208302840111640100000000831117156103ba57600080fd5b919080806020026020016040519081016040528093929190818152602001838360200280828437600092019190915250929594936020810193503591505064010000000081111561040a57600080fd5b82018360208201111561041c57600080fd5b8035906020019184600183028401116401000000008311171561043e57600080fd5b91908080601f016020809104026020016040519081016040528093929190818152602001838380828437600092019190915250929594936020810193503591505064010000000081111561049157600080fd5b8201836020820111156104a357600080fd5b803590602001918460018302840111640100000000831117156104c557600080fd5b91908080601f016020809104026020016040519081016040528093929190818152602001838380828437600092019190915250929550610b22945050505050565b6102896004803603606081101561051c57600080fd5b81019060208101813564010000000081111561053757600080fd5b82018360208201111561054957600080fd5b8035906020019184602083028401116401000000008311171561056b57600080fd5b91908080602002602001604051908101604052809392919081815260200183836020028082843760009201919091525092959493602081019350359150506401000000008111156105bb57600080fd5b8201836020820111156105cd57600080fd5b803590602001918460208302840111640100000000831117156105ef57600080fd5b919080806020026020016040519081016040528093929190818152602001838360200280828437600092019190915250929594936020810193503591505064010000000081111561063f57600080fd5b82018360208201111561065157600080fd5b8035906020019184600183028401116401000000008311171561067357600080fd5b91908080601f016020809104026020016040519081016040528093929190818152602001838380828437600092019190915250929550610ef3945050505050565b6000808560048151811015156106c657fe5b9060200190602002015161ffff169050600060108760048151811015156106e957fe5b90602001906020020151908060020a82049150509050600087600581518110151561071057fe5b9060200190602002015190506040600089600181518110151561072f57fe5b602090810290910181015182528101919091526040016000205460ff168061078357506040600089600281518110151561076557fe5b602090810290910181015182528101919091526040016000205460ff165b1561078d57600080fd5b87600081518110151561079c57fe5b906020019060200201516107ae610b1b565b146107b857600080fd5b82156107c357600080fd5b60a08860058151811015156107d457fe5b60209081029091010151600160029290920a9004146107f257600080fd5b61084d8888600080548060200260200160405190810160405280929190818152602001828054801561084357602002820191906000526020600020905b81548152602001906001019080831161082f575b5050505050611234565b151561085857600080fd5b6040805160018082528183019092526060916020808301908038833901905050905088600381518110151561088957fe5b906020019060200201518160008151811015156108a257fe5b602090810290910101526108b5816118fc565b600080516020611d388339815191528960038151811015156108d357fe5b906020019060200201516040518082815260200191505060405180910390a1600080516020611d3883398151915289600481518110151561091057fe5b906020019060200201516040518082815260200191505060405180910390a1600080516020611d58833981519152876040518080602001828103825283818151815260200191508051906020019080838360005b8381101561097c578181015183820152602001610964565b50505050905090810190601f1680156109a95780820380516001836020036101000a031916815260200191505b509250505060405180910390a1600080516020611d58833981519152866040518080602001828103825283818151815260200191508051906020019080838360005b83811015610a035781810151838201526020016109eb565b50505050905090810190601f168015610a305780820380516001836020036101000a031916815260200191505b509250505060405180910390a16001604060008b6001815181101515610a5257fe5b90602001906020020151815260200190815260200160002060006101000a81548160ff0219169083151502179055506001604060008b6002815181101515610a9657fe5b90602001906020020151815260200190815260200160002060006101000a81548160ff0219169083151502179055508173ffffffffffffffffffffffffffffffffffffffff166108fc849081150290604051600060405180830381858888f19350505050158015610b0b573d6000803e3d6000fd5b5060019998505050505050505050565b603f545b90565b600060406000866001815181101515610b3757fe5b602090810290910181015182528101919091526040016000205460ff1680610b8b575060406000866002815181101515610b6d57fe5b602090810290910181015182528101919091526040016000205460ff165b15610b9557600080fd5b846000815181101515610ba457fe5b90602001906020020151610bb6610b1b565b14610bc057600080fd5b60a0856005815181101515610bd157fe5b60209081029091010151600291820a900414610bec57600080fd5b610c4585856000805480602002602001604051908101604052809291908181526020018280548015610843576020028201919060005260206000209081548152602001906001019080831161082f575050505050611234565b1515610c5057600080fd5b6040805160028082526060808301845292602083019080388339019050509050856003815181101515610c7f57fe5b90602001906020020151816000815181101515610c9857fe5b60209081029091010152855186906004908110610cb157fe5b90602001906020020151816001815181101515610cca57fe5b60209081029091010152610cdd816118fc565b600080516020611d38833981519152866003815181101515610cfb57fe5b906020019060200201516040518082815260200191505060405180910390a1600080516020611d38833981519152866004815181101515610d3857fe5b906020019060200201516040518082815260200191505060405180910390a1600080516020611d58833981519152846040518080602001828103825283818151815260200191508051906020019080838360005b83811015610da4578181015183820152602001610d8c565b50505050905090810190601f168015610dd15780820380516001836020036101000a031916815260200191505b509250505060405180910390a1600080516020611d58833981519152836040518080602001828103825283818151815260200191508051906020019080838360005b83811015610e2b578181015183820152602001610e13565b50505050905090810190601f168015610e585780820380516001836020036101000a031916815260200191505b509250505060405180910390a1600160406000886001815181101515610e7a57fe5b90602001906020020151815260200190815260200160002060006101000a81548160ff021916908315150217905550600160406000886002815181101515610ebe57fe5b6020908102919091018101518252810191909152604001600020805460ff191691151591909117905550600195945050505050565b600080846004815181101515610f0557fe5b9060200190602002015161ffff16905060006010866004815181101515610f2857fe5b6020908102909101015160029190910a90049050348114610f93576040805160e560020a62461bcd02815260206004820152600160248201527f3100000000000000000000000000000000000000000000000000000000000000604482015290519081900360640190fd5b8115610fe9576040805160e560020a62461bcd02815260206004820152600160248201527f3200000000000000000000000000000000000000000000000000000000000000604482015290519081900360640190fd5b856005815181101515610ff857fe5b6020908102909101015115611057576040805160e560020a62461bcd02815260206004820152600160248201527f3300000000000000000000000000000000000000000000000000000000000000604482015290519081900360640190fd5b6110b086866000805480602002602001604051908101604052809291908181526020018280548015610843576020028201919060005260206000209081548152602001906001019080831161082f575050505050611234565b1515611106576040805160e560020a62461bcd02815260206004820152600160248201527f3400000000000000000000000000000000000000000000000000000000000000604482015290519081900360640190fd5b6040805160018082528183019092526060916020808301908038833901905050905086600381518110151561113757fe5b9060200190602002015181600081518110151561115057fe5b60209081029091010152611163816118fc565b600080516020611d3883398151915287600381518110151561118157fe5b906020019060200201516040518082815260200191505060405180910390a1600080516020611d58833981519152856040518080602001828103825283818151815260200191508051906020019080838360005b838110156111ed5781810151838201526020016111d5565b50505050905090810190601f16801561121a5780820380516001836020036101000a031916815260200191505b509250505060405180910390a15060019695505050505050565b6000806002601084510381151561124757fe5b04905060008111801561125a5750808551145b8015611267575083516008145b80156112795750806002026010018351145b151561128457600080fd5b60005b85518110156112db577f30644e72e131a029b85045b68181585d2833e84879b9709143e1f593f000000186828151811015156112bf57fe5b60209081029091010151106112d357600080fd5b600101611287565b506040805160188082526103208201909252606091602082016103008038833901905050905084600081518110151561131057fe5b9060200190602002015181600081518110151561132957fe5b6020908102909101015284517f30644e72e131a029b85045b68181585d97816a916871ca8d3c208c16d87cfd47908690600190811061136457fe5b9060200190602002015181151561137757fe5b067f30644e72e131a029b85045b68181585d97816a916871ca8d3c208c16d87cfd47038160018151811015156113a957fe5b602090810290910101528451859060029081106113c257fe5b906020019060200201518160028151811015156113db57fe5b602090810290910101528451859060039081106113f457fe5b9060200190602002015181600381518110151561140d57fe5b6020908102909101015284518590600490811061142657fe5b9060200190602002015181600481518110151561143f57fe5b6020908102909101015284518590600590811061145857fe5b9060200190602002015181600581518110151561147157fe5b6020908102909101015283518490600090811061148a57fe5b906020019060200201518160068151811015156114a357fe5b602090810290910101528351849060019081106114bc57fe5b906020019060200201518160078151811015156114d557fe5b602090810290910101528351849060029081106114ee57fe5b9060200190602002015181600881518110151561150757fe5b6020908102909101015283518490600390811061152057fe5b9060200190602002015181600981518110151561153957fe5b6020908102909101015283518490600490811061155257fe5b9060200190602002015181600a81518110151561156b57fe5b6020908102909101015283518490600590811061158457fe5b9060200190602002015181600b81518110151561159d57fe5b602090810290910101526115af611c4b565b604080519081016040528086600e8151811015156115c957fe5b90602001906020020151815260200186600f8151811015156115e757fe5b602090810290910101519052905060005b83811015611682576116788261167360408051908101604052808a8660020260100181518110151561162657fe5b9060200190602002015181526020018a8660020260110181518110151561164957fe5b906020019060200201518152508b8581518110151561166457fe5b90602001906020020151611a06565b611a96565b91506001016115f8565b50805182518390600c90811061169457fe5b9060200190602002018181525050806020015182600d8151811015156116b657fe5b602090810290910101528451859060069081106116cf57fe5b9060200190602002015182600e8151811015156116e857fe5b6020908102909101015284518590600790811061170157fe5b9060200190602002015182600f81518110151561171a57fe5b6020908102909101015284518590600890811061173357fe5b9060200190602002015182601081518110151561174c57fe5b6020908102909101015284518590600990811061176557fe5b9060200190602002015182601181518110151561177e57fe5b6020908102909101015285518690600690811061179757fe5b906020019060200201518260128151811015156117b057fe5b602090810290910101528551869060079081106117c957fe5b906020019060200201518260138151811015156117e257fe5b6020908102909101015284518590600a9081106117fb57fe5b9060200190602002015182601481518110151561181457fe5b6020908102909101015284518590600b90811061182d57fe5b9060200190602002015182601581518110151561184657fe5b6020908102909101015284518590600c90811061185f57fe5b9060200190602002015182601681518110151561187857fe5b6020908102909101015284518590600d90811061189157fe5b906020019060200201518260178151811015156118aa57fe5b602090810290910101526118bc611c62565b60006020826103006020870160086107d05a03fa90508080156118de576118e0565bfe5b508015156118ed57600080fd5b50511515979650505050505050565b611904611c81565b604080516103e081019182905290602190601f9082845b81548152602001906001019080831161191b5750506001549394506000925050505b83518110156119f0576000848281518110151561195657fe5b602090810290910101519050600083815b601e8110156119db576001821615156119995761199284600283601f811061198b57fe5b0154611af4565b92506119b6565b6119b38782601f81106119a857fe5b602002015185611af4565b92505b838782601f81106119c357fe5b60200201529192508291600290910490600101611967565b50506103c0850152506001918201910161193d565b506119fe602183601f611ca1565b506001555050565b611a0e611c4b565b811515611a2f57506040805180820190915260008082526020820152611a90565b8160011415611a3f575081611a90565b611a47611c4b565b611a4f611cdf565b845181526020808601519082015260408101849052600060608360808460076107d05a03fa90508080156118de5750801515611a8a57600080fd5b50909150505b92915050565b611a9e611c4b565b611aa6611cfe565b8351815260208085015181830152835160408301528301516060808301919091526000908360c08460066107d05a03fa90508080156118de5750801515611aec57600080fd5b505092915050565b60007f30644e72e131a029b85045b68181585d2833e84879b9709143e1f593f0000001818173__MiMC__________________________________63d15ca1098760006040518363ffffffff1660e060020a028152600401808381526020018281526020019250505060206040518083038186803b158015611b7457600080fd5b505af4158015611b88573d6000803e3d6000fd5b505050506040513d6020811015611b9e57600080fd5b50518608905081801515611bae57fe5b73__MiMC__________________________________63d15ca10986846040518363ffffffff1660e060020a028152600401808381526020018281526020019250505060206040518083038186803b158015611c0857600080fd5b505af4158015611c1c573d6000803e3d6000fd5b505050506040513d6020811015611c3257600080fd5b505183801515611c3e57fe5b8684080895945050505050565b604080518082019091526000808252602082015290565b6020604051908101604052806001906020820280388339509192915050565b6103e060405190810160405280601f906020820280388339509192915050565b82601f8101928215611ccf579160200282015b82811115611ccf578251825591602001919060010190611cb4565b50611cdb929150611d1d565b5090565b6060604051908101604052806003906020820280388339509192915050565b6080604051908101604052806004906020820280388339509192915050565b610b1f91905b80821115611cdb5760008155600101611d2356fe13d4c6bb7759568f923829325f51c179d0f56703f7f8e727d84b68fdf7e67c325da5f1e4859d4c4ed890126a698b9d2667b0e27bdefab0d69499f7b797487b59a165627a7a72305820781564cf2b57d1ae37b3e41f33e1617b00129f436a86814075889e386a891e530029",
  "source": "pragma solidity >=0.5.2;\n\nimport \"groth16batchverifier/contracts/Groth16Verifier.sol\";\n\n// MiMCpe7 placeholder for linking bytecode from https://github.com/iden3/circomlib/blob/master/src/mimc_gencontract.js\nlibrary MiMC {\n  function MiMCpe7(uint256 in_x, uint256 in_k) pure public returns(uint256 out_x);\n}\n\n\n// this is hackathon edition. Not optimized!\ncontract MiMCTree {\n  using Groth16Verifier for Groth16Verifier.G1Point;\n  using Groth16Verifier for Groth16Verifier.G2Point;\n\n\n\n  uint256 constant proofLength = 30;\n  uint256 constant height = proofLength+1;\n  uint256[] vk = [\n    16998550835308717596021269693023145348120940320458380850783345104936803943714,\n    19043499103541205113220604030308080901976563967840098287208365622667556166068,\n    7272313765343817734167737917776736120505349704739893741698895290157800499590,\n    2918228845876645706381840785259156044672755724748085883189097491696733137923,\n    11950240970782622159251526920772075308296135088314917750698133649753823179525,\n    795370460138836418326172922983574838337397958662331904131391209315578440986,\n    7807636614181477983860779017426749189194298032374736785221740993219924270749,\n    3024637250645993282178369109797331157218491014949291690150802743503938463953,\n    19668542239946149719769746895836057894641376721279600175343934539848933843207,\n    17202258242412761961893122932534614205218628098416290865670903537499719847005,\n    12563609628724892494628593665476390665583874622033588438590407309859950429146,\n    14750326016051787920513556578982953607181563197899421866574345180902605748361,\n    4938265824265223491862206749651453848780175133247912167639757629366609057820,\n    2632074105443279689841381535269779338466610112286935829531380657192174723449,\n    447992092238902941743048272904918472280871221204019499354521876792231644968,\n    5254365890574538317197301579062188360496463507220520154707015309719368789450,\n    4213809056985455803207041067877588451061248167066078397552184005827705823669,\n    15070311698338843271004369921844801677732002928838834042356554264356726870192,\n    5528321114220897112206785769658079301778731641603853480842271736945334707682,\n    9654944572869725735706839773504567513521928470340825342206171060878440199234,\n    132939734485949527832074557954506207068845339535867999356964190462738148342,\n    18322799065117783267917059217109112384735583249373844456234663991533246511355,\n    9770881878810399461042283591107097718795076765574127350964739427248188900665,\n    19533028314111659475571093805398295607509358966433527230617900047143195805976,\n    9626032357886362634269022226341128225876176857633215827383263866889032984668,\n    12521522981040737983013607254110491309018942918024191696879723789370923730652,\n    7993868889094857363985950277104446922427099886008115581738774796866991992440,\n    18829060224684239846330505480744652591084664759131281442074415377596383837090\n  ];\n  uint256 cursor = 0;\n\n  uint256[height] merkleDefaults;\n  uint256[height] rightPath;\n\n  constructor() public {\n    merkleDefaults[0] = 0;\n    for(uint i = 1; i < height; i++ ) {\n      merkleDefaults[i] = hash(merkleDefaults[i-1], merkleDefaults[i-1]);\n      rightPath[i] = merkleDefaults[i];\n    }\n  }\n\n  function _merklePush(uint256[] memory items) internal {\n    uint256[height] memory _rightPath = rightPath;\n    uint256 _cursor = cursor;\n    for(uint i=0; i < items.length; i++) {\n      uint256 item = items[i];\n      uint256 item_next = 0;\n      uint256 t = _cursor;\n      for(uint j=0; j < height-1; j++) {\n        if ((t & 1)==0) {\n          item_next = hash(item, merkleDefaults[j]);\n        } else {\n          item_next = hash(_rightPath[j], item);\n        }\n        _rightPath[j] = item;\n        item = item_next;\n        t = t >> 1;\n      }\n      _rightPath[height-1] = item_next;\n      _cursor += 1;\n    }\n    rightPath = _rightPath;\n    cursor = _cursor;\n  }\n\n  function merkleRoot() public view returns(uint256) {\n    return rightPath[height-1];\n  }\n\n  function hash(uint256 a, uint256 b) internal pure returns(uint256) {\n    uint256 p = 21888242871839275222246405745257275088548364400416034343698204186575808495617;\n    uint256 r = addmod(a, MiMC.MiMCpe7(a,0), p);\n    r = addmod(addmod(r, b, p), MiMC.MiMCpe7(b,r), p);\n    return r;\n  }\n\n  event AddUtxo(uint256 utxo);\n  event AddNullifier(uint256 nullifier);\n  event AddEcryptedUtxoMessage(bytes data);\n\n  mapping (uint256=>bool) nullifier;\n\n    // deposit for ethereum\n    function deposit(uint[] memory input, uint[] memory proof, bytes memory encdata1) public payable returns(bool) {\n\n      uint assetId = input[4] & 0xFFFF;\n      uint amount = input[4] >> 16;\n\n      require(amount==msg.value, \"1\");\n      require(assetId==0, \"2\");\n      require(input[5]==0, \"3\");\n      require(Groth16Verifier.verify(input, proof, vk), \"4\");\n\n      uint[] memory utxos = new uint[](1);\n      utxos[0] = input[3];\n\n      _merklePush(utxos);\n\n      emit AddUtxo(input[3]);\n      emit AddEcryptedUtxoMessage(encdata1);\n      return true;\n    }\n\n\n  //withdrawal for ethereum\n  function withdrawal(uint[] memory input, uint[] memory proof, bytes memory encdata1, bytes memory encdata2) public returns(bool) {\n    uint assetId = input[4] & 0xFFFF;\n    uint amount = input[4] >> 16;\n    address payable target = address(uint160(input[5]));\n    require((nullifier[input[1]] || nullifier[input[2]]) == false);\n    require(merkleRoot()==input[0]);\n    require(assetId==0);\n    require((input[5] >> 160) == 1);\n    require(Groth16Verifier.verify(input, proof, vk));\n    uint[] memory utxos = new uint[](1);\n    utxos[0] = input[3];\n    _merklePush(utxos);\n    emit AddUtxo(input[3]);\n    emit AddUtxo(input[4]);\n    emit AddEcryptedUtxoMessage(encdata1);\n    emit AddEcryptedUtxoMessage(encdata2);\n    nullifier[input[1]] = true;\n    nullifier[input[2]] = true;\n    target.transfer(amount);\n    return true;\n  }\n\n/*\n  signal input root;\n  signal input n1;\n  signal input n2_or_u_in;\n  signal input out_u1;\n  signal input out_u2_or_asset;\n  signal input txtype;\n*/\n  //transfer for ethereum\n  function transfer(uint[] memory input, uint[] memory proof, bytes memory encdata1, bytes memory encdata2) public returns(bool) {\n    require((nullifier[input[1]] || nullifier[input[2]]) == false);\n    require(merkleRoot()==input[0]);\n    require((input[5] >> 160) == 2);\n    require(Groth16Verifier.verify(input, proof, vk));\n    uint[] memory utxos = new uint[](2);\n    utxos[0] = input[3];\n    utxos[1] = input[4];\n    _merklePush(utxos);\n    emit AddUtxo(input[3]);\n    emit AddUtxo(input[4]);\n    emit AddEcryptedUtxoMessage(encdata1);\n    emit AddEcryptedUtxoMessage(encdata2);\n    nullifier[input[1]] = true;\n    nullifier[input[2]] = true;\n    return true;\n  }\n\n}\n",
  "sourcePath": "/Users/raptor/Desktop/projects/zp-chrome-extension/MiMCTree/contracts/MiMCTree.sol",
  "compiler": {
    "name": "solc",
    "version": "0.5.2+commit.1df8f40c.Emscripten.clang"
  },
  "schemaVersion": "3.0.15",
  "updatedAt": "2020-01-05T17:48:22.643Z",
  "devdoc": {
    "methods": {}
  },
  "userdoc": {
    "methods": {}
  }
}